{
  "contractName": "umo",
  "abi": [
    {
      "inputs": [],
      "stateMutability": "nonpayable",
      "type": "constructor"
    },
    {
      "anonymous": false,
      "inputs": [
        {
          "indexed": true,
          "internalType": "address",
          "name": "oldOwner",
          "type": "address"
        },
        {
          "indexed": true,
          "internalType": "address",
          "name": "newOwner",
          "type": "address"
        }
      ],
      "name": "OwnerSet",
      "type": "event"
    },
    {
      "inputs": [
        {
          "internalType": "string",
          "name": "",
          "type": "string"
        }
      ],
      "name": "ProposalMapping",
      "outputs": [
        {
          "internalType": "string",
          "name": "uuid",
          "type": "string"
        },
        {
          "internalType": "uint256",
          "name": "amount",
          "type": "uint256"
        },
        {
          "internalType": "address",
          "name": "creator",
          "type": "address"
        },
        {
          "internalType": "enum umo.Status",
          "name": "status",
          "type": "uint8"
        }
      ],
      "stateMutability": "view",
      "type": "function"
    },
    {
      "inputs": [],
      "name": "totalBalance",
      "outputs": [
        {
          "internalType": "uint256",
          "name": "",
          "type": "uint256"
        }
      ],
      "stateMutability": "view",
      "type": "function"
    },
    {
      "inputs": [
        {
          "internalType": "uint256",
          "name": "amount",
          "type": "uint256"
        },
        {
          "internalType": "string",
          "name": "uuid",
          "type": "string"
        }
      ],
      "name": "AddProposal",
      "outputs": [],
      "stateMutability": "nonpayable",
      "type": "function"
    },
    {
      "inputs": [
        {
          "internalType": "string",
          "name": "uuid",
          "type": "string"
        },
        {
          "internalType": "address",
          "name": "reciver",
          "type": "address"
        }
      ],
      "name": "makePayout",
      "outputs": [],
      "stateMutability": "nonpayable",
      "type": "function"
    }
  ],
  "bytecode": "0x608060405273ab54dfe43bbfad8d6df5e9fc88c1b976101bed076000806101000a81548173ffffffffffffffffffffffffffffffffffffffff021916908373ffffffffffffffffffffffffffffffffffffffff16021790555034801561006457600080fd5b5033600160006101000a81548173ffffffffffffffffffffffffffffffffffffffff021916908373ffffffffffffffffffffffffffffffffffffffff160217905550600160009054906101000a900473ffffffffffffffffffffffffffffffffffffffff1673ffffffffffffffffffffffffffffffffffffffff16600073ffffffffffffffffffffffffffffffffffffffff167f342827c97908e5e2f71151c08502a66d44b6f758e3ac2f1de95f02eb95f0a73560405160405180910390a3611271806101326000396000f3fe608060405234801561001057600080fd5b5060043610610069576000357c010000000000000000000000000000000000000000000000000000000090048063235bca4e1461006e57806335163ff014610133578063ad7a672f1461029d578063fde3a612146102bb575b600080fd5b6101316004803603604081101561008457600080fd5b8101908080359060200190929190803590602001906401000000008111156100ab57600080fd5b8201836020820111156100bd57600080fd5b803590602001918460018302840111640100000000831117156100df57600080fd5b91908080601f016020809104026020016040519081016040528093929190818152602001838380828437600081840152601f19601f820116905080830192505050505050509192919290505050610396565b005b6101ec6004803603602081101561014957600080fd5b810190808035906020019064010000000081111561016657600080fd5b82018360208201111561017857600080fd5b8035906020019184600183028401116401000000008311171561019a57600080fd5b91908080601f016020809104026020016040519081016040528093929190818152602001838380828437600081840152601f19601f8201169050808301925050505050505091929192905050506108d1565b60405180806020018581526020018473ffffffffffffffffffffffffffffffffffffffff16815260200183600281111561022257fe5b8152602001828103825286818151815260200191508051906020019080838360005b8381101561025f578082015181840152602081019050610244565b50505050905090810190601f16801561028c5780820380516001836020036101000a031916815260200191505b509550505050505060405180910390f35b6102a56109dc565b6040518082815260200191505060405180910390f35b610394600480360360408110156102d157600080fd5b81019080803590602001906401000000008111156102ee57600080fd5b82018360208201111561030057600080fd5b8035906020019184600183028401116401000000008311171561032257600080fd5b91908080601f016020809104026020016040519081016040528093929190818152602001838380828437600081840152601f19601f820116905080830192505050505050509192919290803573ffffffffffffffffffffffffffffffffffffffff1690602001909291905050506109e2565b005b8160008054906101000a900473ffffffffffffffffffffffffffffffffffffffff1673ffffffffffffffffffffffffffffffffffffffff166370a08231336040518263ffffffff167c0100000000000000000000000000000000000000000000000000000000028152600401808273ffffffffffffffffffffffffffffffffffffffff16815260200191505060206040518083038186803b15801561043a57600080fd5b505afa15801561044e573d6000803e3d6000fd5b505050506040513d602081101561046457600080fd5b810190808051906020019092919050505010156104e9576040517f08c379a00000000000000000000000000000000000000000000000000000000081526004018080602001828103825260148152602001807f496e73756666696369656e742062616c616e636500000000000000000000000081525060200191505060405180910390fd5b8160008054906101000a900473ffffffffffffffffffffffffffffffffffffffff1673ffffffffffffffffffffffffffffffffffffffff1663dd62ed3e33306040518363ffffffff167c0100000000000000000000000000000000000000000000000000000000028152600401808373ffffffffffffffffffffffffffffffffffffffff1681526020018273ffffffffffffffffffffffffffffffffffffffff1681526020019250505060206040518083038186803b1580156105ab57600080fd5b505afa1580156105bf573d6000803e3d6000fd5b505050506040513d60208110156105d557600080fd5b810190808051906020019092919050505011610659576040517f08c379a000000000000000000000000000000000000000000000000000000000815260040180806020018281038252601c8152602001807f496e73756666696369656e7420617070726f76656420546f6b656e730000000081525060200191505060405180910390fd5b610661611155565b60405180608001604052808381526020018481526020013373ffffffffffffffffffffffffffffffffffffffff168152602001600060028111156106a157fe5b815250905060008054906101000a900473ffffffffffffffffffffffffffffffffffffffff1673ffffffffffffffffffffffffffffffffffffffff166323b872dd3330866040518463ffffffff167c0100000000000000000000000000000000000000000000000000000000028152600401808473ffffffffffffffffffffffffffffffffffffffff1681526020018373ffffffffffffffffffffffffffffffffffffffff1681526020018281526020019350505050602060405180830381600087803b15801561077157600080fd5b505af1158015610785573d6000803e3d6000fd5b505050506040513d602081101561079b57600080fd5b8101908080519060200190929190505050506107c283600254610fc390919063ffffffff16565b600281905550806003836040518082805190602001908083835b602083106107ff57805182526020820191506020810190506020830392506107dc565b6001836020036101000a0380198251168184511680821785525050505050509050019150509081526020016040518091039020600082015181600001908051906020019061084e92919061119e565b506020820151816001015560408201518160020160006101000a81548173ffffffffffffffffffffffffffffffffffffffff021916908373ffffffffffffffffffffffffffffffffffffffff16021790555060608201518160020160146101000a81548160ff021916908360028111156108c457fe5b0217905550905050505050565b600381805160208101820180518482526020830160208501208183528095505050505050600091509050806000018054600181600116156101000203166002900480601f0160208091040260200160405190810160405280929190818152602001828054600181600116156101000203166002900480156109935780601f1061096857610100808354040283529160200191610993565b820191906000526020600020905b81548152906001019060200180831161097657829003601f168201915b5050505050908060010154908060020160009054906101000a900473ffffffffffffffffffffffffffffffffffffffff16908060020160149054906101000a900460ff16905084565b60025481565b81600160009054906101000a900473ffffffffffffffffffffffffffffffffffffffff1673ffffffffffffffffffffffffffffffffffffffff163373ffffffffffffffffffffffffffffffffffffffff161480610af657506003816040518082805190602001908083835b60208310610a705780518252602082019150602081019050602083039250610a4d565b6001836020036101000a038019825116818451168082178552505050505050905001915050908152602001604051809103902060020160009054906101000a900473ffffffffffffffffffffffffffffffffffffffff1673ffffffffffffffffffffffffffffffffffffffff163373ffffffffffffffffffffffffffffffffffffffff16145b610b68576040517f08c379a000000000000000000000000000000000000000000000000000000000815260040180806020018281038252600c8152602001807f496e76616c69642055736572000000000000000000000000000000000000000081525060200191505060405180910390fd5b8260006002811115610b7657fe5b6003826040518082805190602001908083835b60208310610bac5780518252602082019150602081019050602083039250610b89565b6001836020036101000a038019825116818451168082178552505050505050905001915050908152602001604051809103902060020160149054906101000a900460ff166002811115610bfb57fe5b14610c6e576040517f08c379a000000000000000000000000000000000000000000000000000000000815260040180806020018281038252600f8152602001807f496e76616c69642052657175657374000000000000000000000000000000000081525060200191505060405180910390fd5b60016003856040518082805190602001908083835b60208310610ca65780518252602082019150602081019050602083039250610c83565b6001836020036101000a038019825116818451168082178552505050505050905001915050908152602001604051809103902060020160146101000a81548160ff02191690836002811115610cf757fe5b0217905550610d7d6003856040518082805190602001908083835b60208310610d355780518252602082019150602081019050602083039250610d12565b6001836020036101000a03801982511681845116808217855250505050505090500191505090815260200160405180910390206001015460025461104b90919063ffffffff16565b600281905550600160009054906101000a900473ffffffffffffffffffffffffffffffffffffffff1673ffffffffffffffffffffffffffffffffffffffff163373ffffffffffffffffffffffffffffffffffffffff161415610e685760026003856040518082805190602001908083835b60208310610e115780518252602082019150602081019050602083039250610dee565b6001836020036101000a038019825116818451168082178552505050505050905001915050908152602001604051809103902060020160146101000a81548160ff02191690836002811115610e6257fe5b02179055505b60008054906101000a900473ffffffffffffffffffffffffffffffffffffffff1673ffffffffffffffffffffffffffffffffffffffff1663a9059cbb846003876040518082805190602001908083835b60208310610edb5780518252602082019150602081019050602083039250610eb8565b6001836020036101000a0380198251168184511680821785525050505050509050019150509081526020016040518091039020600101546040518363ffffffff167c0100000000000000000000000000000000000000000000000000000000028152600401808373ffffffffffffffffffffffffffffffffffffffff16815260200182815260200192505050602060405180830381600087803b158015610f8157600080fd5b505af1158015610f95573d6000803e3d6000fd5b505050506040513d6020811015610fab57600080fd5b81019080805190602001909291905050505050505050565b600080828401905083811015611041576040517f08c379a000000000000000000000000000000000000000000000000000000000815260040180806020018281038252601b8152602001807f536166654d6174683a206164646974696f6e206f766572666c6f77000000000081525060200191505060405180910390fd5b8091505092915050565b600061108d83836040518060400160405280601e81526020017f536166654d6174683a207375627472616374696f6e206f766572666c6f770000815250611095565b905092915050565b6000838311158290611142576040517f08c379a00000000000000000000000000000000000000000000000000000000081526004018080602001828103825283818151815260200191508051906020019080838360005b838110156111075780820151818401526020810190506110ec565b50505050905090810190601f1680156111345780820380516001836020036101000a031916815260200191505b509250505060405180910390fd5b5060008385039050809150509392505050565b60405180608001604052806060815260200160008152602001600073ffffffffffffffffffffffffffffffffffffffff1681526020016000600281111561119857fe5b81525090565b828054600181600116156101000203166002900490600052602060002090601f016020900481019282601f106111df57805160ff191683800117855561120d565b8280016001018555821561120d579182015b8281111561120c5782518255916020019190600101906111f1565b5b50905061121a919061121e565b5090565b5b8082111561123757600081600090555060010161121f565b509056fea2646970667358221220cbb0b99f6bd78fbc72fd254ee04567226b20df9248c2be559dae0ae4282208ee64736f6c634300060c0033",
  "immutableReferences": {},
  "source": "pragma solidity >=0.4.22 <0.7.0;\nimport \"@openzeppelin/contracts/token/ERC20/IERC20.sol\";\nimport \"@openzeppelin/contracts/math/SafeMath.sol\";\ncontract umo {\n    using SafeMath for uint256;\n    enum Status { WAITING, COMPLETED, DISPUTED }\n    struct Proposal { \n       string uuid;\n       uint256 amount;\n       address creator;\n       Status status;\n    }\n    IERC20 DAI = IERC20(0xaB54Dfe43BbfAD8D6DF5E9fc88C1b976101bEd07);\n    address private owner;\n    uint256 public totalBalance;\n    event OwnerSet(address indexed oldOwner, address indexed newOwner);\n\n    mapping (string => Proposal )public ProposalMapping;\n    modifier executioner(string memory uuid){\n        require(msg.sender == owner||msg.sender == ProposalMapping[uuid].creator, \"Invalid User\");\n        _;\n    }\n    modifier checkStatus(string memory uuid){\n        require(ProposalMapping[uuid].status == Status.WAITING, \"Invalid Request\");\n        _;\n    }\n    constructor() public {\n        owner = msg.sender;\n        emit OwnerSet(address(0), owner);\n    }\n    function AddProposal(uint amount, string memory uuid)public{\n        require(DAI.balanceOf(msg.sender)>=amount, \"Insufficient balance\");\n        require(DAI.allowance(msg.sender, address(this))>amount, \"Insufficient approved Tokens\");\n        Proposal memory proposal = Proposal({\n            uuid : uuid,\n            amount : amount,\n            status : Status.WAITING,\n            creator: msg.sender\n        });\n        \n        DAI.transferFrom(msg.sender, address(this), amount);\n        totalBalance = totalBalance.add(amount);\n        ProposalMapping[uuid] = proposal;\n        \n        \n    }\n    function makePayout (string  memory uuid, address reciver) public executioner(uuid) checkStatus(uuid){\n        ProposalMapping[uuid].status = Status.COMPLETED;\n        totalBalance = totalBalance.sub(ProposalMapping[uuid].amount);\n        if (msg.sender == owner){\n            ProposalMapping[uuid].status = Status.DISPUTED;\n        }\n        DAI.transfer(reciver, ProposalMapping[uuid].amount);\n    }\n    \n}",
  "sourcePath": "/run/media/abhimanyu/New Volume/sme_web3_serviceplatform/frontend-react/contracts/UMO.sol",
  "compiler": {
    "name": "solc",
    "version": "0.6.12+commit.27d51765.Emscripten.clang"
  },
  "schemaVersion": "3.2.3",
  "updatedAt": "2020-08-27T18:55:18.326Z",
  "devdoc": {
    "kind": "dev",
    "methods": {},
    "version": 1
  },
  "userdoc": {
    "kind": "user",
    "methods": {},
    "version": 1
  }
}